{
  "abi": [
    {
      "inputs": [
        {
          "internalType": "contract IBentoBoxMinimal",
          "name": "bento_",
          "type": "address"
        },
        {
          "internalType": "address",
          "name": "lexDAO_",
          "type": "address"
        },
        {
          "internalType": "address",
          "name": "wETH_",
          "type": "address"
        }
      ],
      "stateMutability": "payable",
      "type": "constructor"
    },
    {
      "anonymous": false,
      "inputs": [
        {
          "indexed": false,
          "internalType": "bool",
          "name": "bento",
          "type": "bool"
        },
        {
          "indexed": false,
          "internalType": "bool",
          "name": "nft",
          "type": "bool"
        },
        {
          "indexed": true,
          "internalType": "address",
          "name": "depositor",
          "type": "address"
        },
        {
          "indexed": true,
          "internalType": "address",
          "name": "receiver",
          "type": "address"
        },
        {
          "indexed": true,
          "internalType": "address",
          "name": "resolver",
          "type": "address"
        },
        {
          "indexed": false,
          "internalType": "address",
          "name": "token",
          "type": "address"
        },
        {
          "indexed": false,
          "internalType": "uint256",
          "name": "sum",
          "type": "uint256"
        },
        {
          "indexed": false,
          "internalType": "uint256",
          "name": "termination",
          "type": "uint256"
        },
        {
          "indexed": false,
          "internalType": "uint256",
          "name": "registration",
          "type": "uint256"
        },
        {
          "indexed": false,
          "internalType": "string",
          "name": "details",
          "type": "string"
        }
      ],
      "name": "Deposit",
      "type": "event"
    },
    {
      "anonymous": false,
      "inputs": [
        {
          "indexed": false,
          "internalType": "uint256",
          "name": "registration",
          "type": "uint256"
        },
        {
          "indexed": false,
          "internalType": "string",
          "name": "details",
          "type": "string"
        }
      ],
      "name": "Lock",
      "type": "event"
    },
    {
      "anonymous": false,
      "inputs": [
        {
          "indexed": false,
          "internalType": "uint256",
          "name": "index",
          "type": "uint256"
        },
        {
          "indexed": false,
          "internalType": "string",
          "name": "agreement",
          "type": "string"
        }
      ],
      "name": "RegisterAgreement",
      "type": "event"
    },
    {
      "anonymous": false,
      "inputs": [
        {
          "indexed": true,
          "internalType": "address",
          "name": "resolver",
          "type": "address"
        },
        {
          "indexed": false,
          "internalType": "bool",
          "name": "active",
          "type": "bool"
        },
        {
          "indexed": false,
          "internalType": "uint256",
          "name": "fee",
          "type": "uint256"
        }
      ],
      "name": "RegisterResolver",
      "type": "event"
    },
    {
      "anonymous": false,
      "inputs": [
        {
          "indexed": false,
          "internalType": "uint256",
          "name": "registration",
          "type": "uint256"
        }
      ],
      "name": "Release",
      "type": "event"
    },
    {
      "anonymous": false,
      "inputs": [
        {
          "indexed": false,
          "internalType": "uint256",
          "name": "registration",
          "type": "uint256"
        },
        {
          "indexed": false,
          "internalType": "uint256",
          "name": "depositorAward",
          "type": "uint256"
        },
        {
          "indexed": false,
          "internalType": "uint256",
          "name": "receiverAward",
          "type": "uint256"
        },
        {
          "indexed": false,
          "internalType": "string",
          "name": "details",
          "type": "string"
        }
      ],
      "name": "Resolve",
      "type": "event"
    },
    {
      "anonymous": false,
      "inputs": [
        {
          "indexed": true,
          "internalType": "address",
          "name": "lexDAO",
          "type": "address"
        }
      ],
      "name": "UpdateLexDAO",
      "type": "event"
    },
    {
      "anonymous": false,
      "inputs": [
        {
          "indexed": false,
          "internalType": "uint256",
          "name": "registration",
          "type": "uint256"
        }
      ],
      "name": "Withdraw",
      "type": "event"
    },
    {
      "inputs": [],
      "name": "DOMAIN_SEPARATOR",
      "outputs": [
        {
          "internalType": "bytes32",
          "name": "",
          "type": "bytes32"
        }
      ],
      "stateMutability": "view",
      "type": "function"
    },
    {
      "inputs": [
        {
          "internalType": "uint256",
          "name": "",
          "type": "uint256"
        }
      ],
      "name": "agreements",
      "outputs": [
        {
          "internalType": "string",
          "name": "",
          "type": "string"
        }
      ],
      "stateMutability": "view",
      "type": "function"
    },
    {
      "inputs": [
        {
          "internalType": "address",
          "name": "receiver",
          "type": "address"
        },
        {
          "internalType": "address",
          "name": "resolver",
          "type": "address"
        },
        {
          "internalType": "address",
          "name": "token",
          "type": "address"
        },
        {
          "internalType": "uint256[]",
          "name": "value",
          "type": "uint256[]"
        },
        {
          "internalType": "uint256",
          "name": "termination",
          "type": "uint256"
        },
        {
          "internalType": "bool",
          "name": "nft",
          "type": "bool"
        },
        {
          "internalType": "string",
          "name": "details",
          "type": "string"
        }
      ],
      "name": "deposit",
      "outputs": [
        {
          "internalType": "uint256",
          "name": "registration",
          "type": "uint256"
        }
      ],
      "stateMutability": "payable",
      "type": "function"
    },
    {
      "inputs": [
        {
          "internalType": "address",
          "name": "receiver",
          "type": "address"
        },
        {
          "internalType": "address",
          "name": "resolver",
          "type": "address"
        },
        {
          "internalType": "address",
          "name": "token",
          "type": "address"
        },
        {
          "internalType": "uint256[]",
          "name": "value",
          "type": "uint256[]"
        },
        {
          "internalType": "uint256",
          "name": "termination",
          "type": "uint256"
        },
        {
          "internalType": "bool",
          "name": "wrapBento",
          "type": "bool"
        },
        {
          "internalType": "string",
          "name": "details",
          "type": "string"
        }
      ],
      "name": "depositBento",
      "outputs": [
        {
          "internalType": "uint256",
          "name": "registration",
          "type": "uint256"
        }
      ],
      "stateMutability": "payable",
      "type": "function"
    },
    {
      "inputs": [
        {
          "internalType": "address",
          "name": "receiver",
          "type": "address"
        },
        {
          "internalType": "address",
          "name": "resolver",
          "type": "address"
        },
        {
          "internalType": "address",
          "name": "token",
          "type": "address"
        },
        {
          "internalType": "uint256[]",
          "name": "value",
          "type": "uint256[]"
        },
        {
          "internalType": "uint256",
          "name": "termination",
          "type": "uint256"
        },
        {
          "internalType": "bool",
          "name": "bentoBoxed",
          "type": "bool"
        },
        {
          "internalType": "bool",
          "name": "nft",
          "type": "bool"
        },
        {
          "internalType": "bool",
          "name": "wrapBento",
          "type": "bool"
        },
        {
          "internalType": "string",
          "name": "details",
          "type": "string"
        },
        {
          "internalType": "uint8",
          "name": "v",
          "type": "uint8"
        },
        {
          "internalType": "bytes32",
          "name": "r",
          "type": "bytes32"
        },
        {
          "internalType": "bytes32",
          "name": "s",
          "type": "bytes32"
        }
      ],
      "name": "depositInvoiceSig",
      "outputs": [],
      "stateMutability": "payable",
      "type": "function"
    },
    {
      "inputs": [
        {
          "internalType": "uint256",
          "name": "registration",
          "type": "uint256"
        }
      ],
      "name": "getMilestones",
      "outputs": [
        {
          "internalType": "uint256[]",
          "name": "milestones",
          "type": "uint256[]"
        }
      ],
      "stateMutability": "view",
      "type": "function"
    },
    {
      "inputs": [
        {
          "internalType": "address",
          "name": "",
          "type": "address"
        }
      ],
      "name": "lastActionTimestamp",
      "outputs": [
        {
          "internalType": "uint256",
          "name": "",
          "type": "uint256"
        }
      ],
      "stateMutability": "view",
      "type": "function"
    },
    {
      "inputs": [],
      "name": "lexDAO",
      "outputs": [
        {
          "internalType": "address",
          "name": "",
          "type": "address"
        }
      ],
      "stateMutability": "view",
      "type": "function"
    },
    {
      "inputs": [
        {
          "internalType": "uint256",
          "name": "registration",
          "type": "uint256"
        },
        {
          "internalType": "string",
          "name": "details",
          "type": "string"
        }
      ],
      "name": "lock",
      "outputs": [],
      "stateMutability": "payable",
      "type": "function"
    },
    {
      "inputs": [],
      "name": "lockerCount",
      "outputs": [
        {
          "internalType": "uint256",
          "name": "",
          "type": "uint256"
        }
      ],
      "stateMutability": "view",
      "type": "function"
    },
    {
      "inputs": [
        {
          "internalType": "uint256",
          "name": "",
          "type": "uint256"
        }
      ],
      "name": "lockers",
      "outputs": [
        {
          "internalType": "bool",
          "name": "bento",
          "type": "bool"
        },
        {
          "internalType": "bool",
          "name": "nft",
          "type": "bool"
        },
        {
          "internalType": "bool",
          "name": "locked",
          "type": "bool"
        },
        {
          "internalType": "address",
          "name": "depositor",
          "type": "address"
        },
        {
          "internalType": "address",
          "name": "receiver",
          "type": "address"
        },
        {
          "internalType": "address",
          "name": "resolver",
          "type": "address"
        },
        {
          "internalType": "address",
          "name": "token",
          "type": "address"
        },
        {
          "internalType": "uint32",
          "name": "currentMilestone",
          "type": "uint32"
        },
        {
          "internalType": "uint32",
          "name": "termination",
          "type": "uint32"
        },
        {
          "internalType": "uint96",
          "name": "paid",
          "type": "uint96"
        },
        {
          "internalType": "uint96",
          "name": "sum",
          "type": "uint96"
        }
      ],
      "stateMutability": "view",
      "type": "function"
    },
    {
      "inputs": [
        {
          "internalType": "bytes[]",
          "name": "data",
          "type": "bytes[]"
        }
      ],
      "name": "multicall",
      "outputs": [
        {
          "internalType": "bytes[]",
          "name": "results",
          "type": "bytes[]"
        }
      ],
      "stateMutability": "nonpayable",
      "type": "function"
    },
    {
      "inputs": [],
      "name": "name",
      "outputs": [
        {
          "internalType": "string",
          "name": "",
          "type": "string"
        }
      ],
      "stateMutability": "view",
      "type": "function"
    },
    {
      "inputs": [
        {
          "internalType": "address",
          "name": "token",
          "type": "address"
        },
        {
          "internalType": "uint256",
          "name": "amount",
          "type": "uint256"
        },
        {
          "internalType": "uint256",
          "name": "deadline",
          "type": "uint256"
        },
        {
          "internalType": "uint8",
          "name": "v",
          "type": "uint8"
        },
        {
          "internalType": "bytes32",
          "name": "r",
          "type": "bytes32"
        },
        {
          "internalType": "bytes32",
          "name": "s",
          "type": "bytes32"
        }
      ],
      "name": "permitThis",
      "outputs": [],
      "stateMutability": "payable",
      "type": "function"
    },
    {
      "inputs": [
        {
          "internalType": "address",
          "name": "token",
          "type": "address"
        },
        {
          "internalType": "uint256",
          "name": "nonce",
          "type": "uint256"
        },
        {
          "internalType": "uint256",
          "name": "deadline",
          "type": "uint256"
        },
        {
          "internalType": "uint8",
          "name": "v",
          "type": "uint8"
        },
        {
          "internalType": "bytes32",
          "name": "r",
          "type": "bytes32"
        },
        {
          "internalType": "bytes32",
          "name": "s",
          "type": "bytes32"
        }
      ],
      "name": "permitThisAllowed",
      "outputs": [],
      "stateMutability": "payable",
      "type": "function"
    },
    {
      "inputs": [
        {
          "internalType": "uint256",
          "name": "index",
          "type": "uint256"
        },
        {
          "internalType": "string",
          "name": "agreement",
          "type": "string"
        }
      ],
      "name": "registerAgreement",
      "outputs": [],
      "stateMutability": "payable",
      "type": "function"
    },
    {
      "inputs": [
        {
          "internalType": "bool",
          "name": "active",
          "type": "bool"
        },
        {
          "internalType": "uint8",
          "name": "fee",
          "type": "uint8"
        }
      ],
      "name": "registerResolver",
      "outputs": [],
      "stateMutability": "payable",
      "type": "function"
    },
    {
      "inputs": [
        {
          "internalType": "uint256",
          "name": "registration",
          "type": "uint256"
        }
      ],
      "name": "release",
      "outputs": [],
      "stateMutability": "payable",
      "type": "function"
    },
    {
      "inputs": [
        {
          "internalType": "uint256",
          "name": "registration",
          "type": "uint256"
        },
        {
          "internalType": "uint256",
          "name": "depositorAward",
          "type": "uint256"
        },
        {
          "internalType": "uint256",
          "name": "receiverAward",
          "type": "uint256"
        },
        {
          "internalType": "string",
          "name": "details",
          "type": "string"
        }
      ],
      "name": "resolve",
      "outputs": [],
      "stateMutability": "payable",
      "type": "function"
    },
    {
      "inputs": [
        {
          "internalType": "address",
          "name": "",
          "type": "address"
        }
      ],
      "name": "resolvers",
      "outputs": [
        {
          "internalType": "bool",
          "name": "active",
          "type": "bool"
        },
        {
          "internalType": "uint8",
          "name": "fee",
          "type": "uint8"
        }
      ],
      "stateMutability": "view",
      "type": "function"
    },
    {
      "inputs": [
        {
          "internalType": "uint8",
          "name": "v",
          "type": "uint8"
        },
        {
          "internalType": "bytes32",
          "name": "r",
          "type": "bytes32"
        },
        {
          "internalType": "bytes32",
          "name": "s",
          "type": "bytes32"
        }
      ],
      "name": "setBentoApproval",
      "outputs": [],
      "stateMutability": "payable",
      "type": "function"
    },
    {
      "inputs": [
        {
          "internalType": "address",
          "name": "lexDAO_",
          "type": "address"
        }
      ],
      "name": "updateLexDAO",
      "outputs": [],
      "stateMutability": "payable",
      "type": "function"
    },
    {
      "inputs": [
        {
          "internalType": "uint256",
          "name": "registration",
          "type": "uint256"
        }
      ],
      "name": "withdraw",
      "outputs": [],
      "stateMutability": "payable",
      "type": "function"
    }
  ],
  "bytecode": {
    "object": "0x610100604052600160065560405162003911380380620039118339810160408190526200002c9162000192565b826001600160a01b031663aee4d1b26040518163ffffffff1660e01b8152600401600060405180830381600087803b1580156200006857600080fd5b505af11580156200007d573d6000803e3d6000fd5b505050506001600160a01b03838116608052600080546001600160a01b031916848316179055811660a0524660c0526200016c60408051808201825260098152682632bc2637b1b5b2b960b91b60209182015281517f8b73c3c69bb8fe3d512ecc4cf759cc79239f7b179b0ffacaa9a75d522b39400f818301527f9f7411dbc297709e272cb374e788f045cf9cef48feeb908dd1df3707532c37fa818401527fc89efdaa54c0f20c7adf612882df0950f5a951637e0307cdcb4c672f298b8bc660608201524660808201523060a0808301919091528351808303909101815260c0909101909252815191012090565b60e05250620001e6915050565b6001600160a01b03811681146200018f57600080fd5b50565b600080600060608486031215620001a857600080fd5b8351620001b58162000179565b6020850151909350620001c88162000179565b6040850151909250620001db8162000179565b809150509250925092565b60805160a05160c05160e0516136ab620002666000396000610c4301526000610b5e0152600081816124eb01526125240152600081816105a40152818161096801528181610e4b01528181611366015281816114020152818161149e0152818161257a0152818161260501528181612648015261270101526136ab6000f3fe6080604052600436106101805760003560e01c8063744b5db6116100d6578063b93793e91161007f578063ccd96eb611610059578063ccd96eb614610516578063f643509c1461052c578063ff2a0df31461053f57600080fd5b8063b93793e914610491578063bb026554146104e3578063bd14de96146104f657600080fd5b8063a9b62c23116100b0578063a9b62c231461043e578063ac9650d814610451578063b2c43bac1461047e57600080fd5b8063744b5db6146102f9578063776319811461030c578063809aab921461031f57600080fd5b80633644e515116101385780634f411f7b116101125780634f411f7b1461029b57806359466d9a146102d35780636df9c3dc146102e657600080fd5b80633644e5151461024657806337bdc99b1461025b57806342c549c01461026e57600080fd5b8063148ea1a411610169578063148ea1a4146101e55780632669714b146102205780632e1a7d4d1461023357600080fd5b806306fdde031461018557806312e3fd1f146101d0575b600080fd5b34801561019157600080fd5b506101ba604051806040016040528060098152602001682632bc2637b1b5b2b960b91b81525081565b6040516101c79190612c7d565b60405180910390f35b6101e36101de366004612cad565b610552565b005b3480156101f157600080fd5b50610212610200366004612cf7565b60056020526000908152604090205481565b6040519081526020016101c7565b6101e361022e366004612d22565b61060d565b6101e3610241366004612d55565b610764565b34801561025257600080fd5b50610212610b5a565b6101e3610269366004612d55565b610c65565b34801561027a57600080fd5b5061028e610289366004612d55565b61108e565b6040516101c79190612d6e565b3480156102a757600080fd5b506000546102bb906001600160a01b031681565b6040516001600160a01b0390911681526020016101c7565b6101e36102e1366004612dfb565b6110f3565b6101e36102f4366004612fa1565b6116f0565b6101e36103073660046130a3565b6118b3565b6101e361031a3660046130ef565b611954565b34801561032b57600080fd5b506103c661033a366004612d55565b60036020819052600091825260409091208054600182015460028301549383015460049093015460ff808416956101008504821695620100008604909216946001600160a01b036301000000909104811694811693918116929081169163ffffffff600160a01b8304811692600160c01b900416906001600160601b0380821691600160601b9004168b565b604080519b15158c5299151560208c0152971515988a01989098526001600160a01b0395861660608a0152938516608089015291841660a088015290921660c086015263ffffffff91821660e0860152166101008401526001600160601b0391821661012084015216610140820152610160016101c7565b6101e361044c3660046130ef565b611a8a565b34801561045d57600080fd5b5061047161046c366004613147565b611adb565b6040516101c791906131bc565b6101e361048c366004612cf7565b611c28565b34801561049d57600080fd5b506104ca6104ac366004612cf7565b60046020526000908152604090205460ff8082169161010090041682565b60408051921515835260ff9091166020830152016101c7565b6102126104f136600461321e565b611cc4565b34801561050257600080fd5b506101ba610511366004612d55565b6121c2565b34801561052257600080fd5b5061021260015481565b6101e361053a3660046130a3565b61225c565b61021261054d36600461321e565b612332565b6040517fc0a47c930000000000000000000000000000000000000000000000000000000081523360048201523060248201526001604482015260ff841660648201526084810183905260a481018290527f00000000000000000000000000000000000000000000000000000000000000006001600160a01b03169063c0a47c939060c401600060405180830381600087803b1580156105f057600080fd5b505af1158015610604573d6000803e3d6000fd5b50505050505050565b336000908152600560205260409020546249d4004291909103116106785760405162461bcd60e51b815260206004820152600f60248201527f4e4f545f434f4f4c45445f444f574e000000000000000000000000000000000060448201526064015b60405180910390fd5b8060ff166000036106cb5760405162461bcd60e51b815260206004820152601d60248201527f4645455f4d5553545f42455f475245415445525f5448414e5f5a45524f000000604482015260640161066f565b60408051808201825283151580825260ff84811660208085018281523360008181526004845288812097518854935161ffff1990941690151561ff00191617610100939096169290920294909417909555600581529385902042905584519283529282019290925290917ffcc84135f183b742bb0da01339486410059e7c28b738caa475534504bb8ef7d1910160405180910390a25050565b6006546001146107a35760405162461bcd60e51b815260206004820152600a6024820152695245454e5452414e435960b01b604482015260640161066f565b600260065560008181526003602052604090208054630100000090046001600160a01b031633146108065760405162461bcd60e51b815260206004820152600d60248201526c2727aa2fa222a827a9a4aa27a960991b604482015260640161066f565b805462010000900460ff16156108475760405162461bcd60e51b81526020600482015260066024820152651313d0d2d15160d21b604482015260640161066f565b6003810154600160c01b900463ffffffff164210156108a85760405162461bcd60e51b815260206004820152600e60248201527f4e4f545f5445524d494e41544544000000000000000000000000000000000000604482015260640161066f565b60038101546001600160a01b03166108fa57805460048201546108f591630100000090046001600160a01b0316906001600160601b03808216600160601b90920481169190910316612a5e565b610a67565b805460ff16156109cb5760038101548154600480840154604051633c6340f360e21b81526001600160a01b03948516928101929092523060248301526301000000909204831660448201526001600160601b03808316600160601b90930481169290920390911660648201527f00000000000000000000000000000000000000000000000000000000000000009091169063f18d03cc90608401600060405180830381600087803b1580156109ae57600080fd5b505af11580156109c2573d6000803e3d6000fd5b50505050610a67565b8054610100900460ff16610a1d576003810154815460048301546108f5926001600160a01b03908116926301000000900416906001600160601b03808216600160601b90920481169190910316612aae565b60038101548154600583018054610a67936001600160a01b03908116933093630100000090910490911691600090610a5757610a576132ce565b9060005260206000200154612b22565b60008281526003602081905260408220805476ffffffffffffffffffffffffffffffffffffffffffffff1916815560018101805473ffffffffffffffffffffffffffffffffffffffff19908116909155600282018054909116905590810180547fffffffff0000000000000000000000000000000000000000000000000000000016905560048101805477ffffffffffffffffffffffffffffffffffffffffffffffff1916905590610b1c6005830182612ba0565b50506040518281527f5b6b431d4476a211bb7d41c20d1aab9ae2321deee0d20be3d9fc9b1093fa6e3d9060200160405180910390a150506001600655565b60007f00000000000000000000000000000000000000000000000000000000000000004614610c40575060408051808201825260098152682632bc2637b1b5b2b960b91b60209182015281517f8b73c3c69bb8fe3d512ecc4cf759cc79239f7b179b0ffacaa9a75d522b39400f818301527f9f7411dbc297709e272cb374e788f045cf9cef48feeb908dd1df3707532c37fa818401527fc89efdaa54c0f20c7adf612882df0950f5a951637e0307cdcb4c672f298b8bc660608201524660808201523060a0808301919091528351808303909101815260c0909101909252815191012090565b507f000000000000000000000000000000000000000000000000000000000000000090565b600654600114610ca45760405162461bcd60e51b815260206004820152600a6024820152695245454e5452414e435960b01b604482015260640161066f565b60026006556000818152600360205260409020805462010000900460ff1615610cf85760405162461bcd60e51b81526020600482015260066024820152651313d0d2d15160d21b604482015260640161066f565b8054630100000090046001600160a01b03163314610d485760405162461bcd60e51b815260206004820152600d60248201526c2727aa2fa222a827a9a4aa27a960991b604482015260640161066f565b6003810154600582018054600092600160a01b900463ffffffff16908110610d7257610d726132ce565b60009182526020909120015460038301549091506001600160a01b0316610e03576001820154610dab906001600160a01b031682612a5e565b6004820180546001600160601b038082168401166bffffffffffffffffffffffff1990911617905560038201805463ffffffff600160a01b80830482166001019091160263ffffffff60a01b19909116179055610f7c565b815460ff1615610f015760038201546001830154604051633c6340f360e21b81526001600160a01b0392831660048201523060248201529082166044820152606481018390527f00000000000000000000000000000000000000000000000000000000000000009091169063f18d03cc90608401600060405180830381600087803b158015610e9157600080fd5b505af1158015610ea5573d6000803e3d6000fd5b5050506004830180546001600160601b038082168501166bffffffffffffffffffffffff199091161790555060038201805463ffffffff600160a01b80830482166001019091160263ffffffff60a01b19909116179055610f7c565b8154610100900460ff16610f305760038201546001830154610dab916001600160a01b03908116911683612aae565b60038201546001830154610f53916001600160a01b039081169130911684612b22565b6004820180546001600160601b038082168401166bffffffffffffffffffffffff199091161790555b60048201546001600160601b03600160601b820481169116036110515760008381526003602081905260408220805476ffffffffffffffffffffffffffffffffffffffffffffff1916815560018101805473ffffffffffffffffffffffffffffffffffffffff19908116909155600282018054909116905590810180547fffffffff0000000000000000000000000000000000000000000000000000000016905560048101805477ffffffffffffffffffffffffffffffffffffffffffffffff191690559061104e6005830182612ba0565b50505b6040518381527fcf95d1fe0feb1424b6916a8d99a225f598710466d34c5a755770a1d4d49311a09060200160405180910390a15050600160065550565b6000818152600360209081526040918290206005018054835181840281018401909452808452606093928301828280156110e757602002820191906000526020600020905b8154815260200190600101908083116110d3575b50505050509050919050565b6006546001146111325760405162461bcd60e51b815260206004820152600a6024820152695245454e5452414e435960b01b604482015260640161066f565b60026006819055600086815260036020526040902060048101549181015490916001600160601b03808216600160601b90920481169190910316906001600160a01b031633146111c45760405162461bcd60e51b815260206004820152600c60248201527f4e4f545f5245534f4c5645520000000000000000000000000000000000000000604482015260640161066f565b815462010000900460ff1661121b5760405162461bcd60e51b815260206004820152600a60248201527f4e4f545f4c4f434b454400000000000000000000000000000000000000000000604482015260640161066f565b8061122686886132fa565b146112735760405162461bcd60e51b815260206004820152600d60248201527f4e4f545f52454d41494e44455200000000000000000000000000000000000000604482015260640161066f565b6002828101546001600160a01b0316600090815260046020526040902054610100900460ff1682049081046112a88189613312565b97506112b48188613312565b60038501549097506001600160a01b031661131a5783546112e590630100000090046001600160a01b031689612a5e565b60018401546112fd906001600160a01b031688612a5e565b6002840154611315906001600160a01b031683612a5e565b6115ea565b835460ff16156115015760038401548454604051633c6340f360e21b81526001600160a01b039283166004820152306024820152630100000090910482166044820152606481018a90527f00000000000000000000000000000000000000000000000000000000000000009091169063f18d03cc90608401600060405180830381600087803b1580156113ac57600080fd5b505af11580156113c0573d6000803e3d6000fd5b5050505060038401546001850154604051633c6340f360e21b81526001600160a01b0392831660048201523060248201529082166044820152606481018990527f00000000000000000000000000000000000000000000000000000000000000009091169063f18d03cc90608401600060405180830381600087803b15801561144857600080fd5b505af115801561145c573d6000803e3d6000fd5b5050505060038401546002850154604051633c6340f360e21b81526001600160a01b0392831660048201523060248201529082166044820152606481018490527f00000000000000000000000000000000000000000000000000000000000000009091169063f18d03cc90608401600060405180830381600087803b1580156114e457600080fd5b505af11580156114f8573d6000803e3d6000fd5b505050506115ea565b8354610100900460ff166115765760038401548454611534916001600160a01b039081169163010000009004168a612aae565b60038401546001850154611555916001600160a01b03908116911689612aae565b60038401546002850154611315916001600160a01b03908116911684612aae565b87156115b65760038401548454600586018054611315936001600160a01b03908116933093630100000090910490911691600090610a5757610a576132ce565b600384015460018501546005860180546115ea936001600160a01b03908116933093911691600090610a5757610a576132ce565b60008981526003602081905260408220805476ffffffffffffffffffffffffffffffffffffffffffffff1916815560018101805473ffffffffffffffffffffffffffffffffffffffff19908116909155600282018054909116905590810180547fffffffff0000000000000000000000000000000000000000000000000000000016905560048101805477ffffffffffffffffffffffffffffffffffffffffffffffff191690559061169f6005830182612ba0565b50507f6eb850ab7e146f6edb53acb7f95559fba222c26806e2a2ba2c5056043af7098389898989896040516116d8959493929190613352565b60405180910390a15050600160065550505050505050565b60006116fa610b5a565b7f0686b1187eca3c6b95b4cac603085a7185455f66b05e91dc4f8be4646f055891338f8f89604051602001611733959493929190613378565b6040516020818303038152906040528051906020012060405160200161178b9291907f190100000000000000000000000000000000000000000000000000000000000081526002810192909252602282015260420190565b60408051601f198184030181528282528051602091820120600080855291840180845281905260ff88169284019290925260608301869052608083018590529092509060019060a0016020604051602081039080840390855afa1580156117f6573d6000803e3d6000fd5b5050604051601f1901519150506001600160a01b0381161580159061182c57508d6001600160a01b0316816001600160a01b0316145b6118785760405162461bcd60e51b815260206004820152600f60248201527f494e56414c49445f494e564f4943450000000000000000000000000000000000604482015260640161066f565b886118925761188c8e8e8e8e8e8d8c611cc4565b506118a3565b6118a18e8e8e8e8e8c8c612332565b505b5050505050505050505050505050565b6000546001600160a01b031633146118fa5760405162461bcd60e51b815260206004820152600a6024820152694e4f545f4c455844414f60b01b604482015260640161066f565b600083815260026020526040902061191382848361343b565b507fd68bcd6f84001ed66f1083ec342e3ad7038be2c24bd39561b29ff3d405cd17d4838383604051611947939291906134fc565b60405180910390a1505050565b6040513360248201523060448201526064810186905260848101859052600160a482015260ff841660c482015260e4810183905261010481018290526000906001600160a01b03881690638fcbaf0c90610124015b6040516020818303038152906040529060e01b6020820180517bffffffffffffffffffffffffffffffffffffffffffffffffffffffff83818316178352505050506040516119f7919061351f565b6000604051808303816000865af19150503d8060008114611a34576040519150601f19603f3d011682016040523d82523d6000602084013e611a39565b606091505b50509050806106045760405162461bcd60e51b815260206004820152600d60248201527f5045524d49545f4641494c454400000000000000000000000000000000000000604482015260640161066f565b604051336024820152306044820152606481018690526084810185905260ff841660a482015260c4810183905260e481018290526000906001600160a01b0388169063d505accf90610104016119a9565b60608167ffffffffffffffff811115611af657611af6612e5c565b604051908082528060200260200182016040528015611b2957816020015b6060815260200190600190039081611b145790505b50905060005b82811015611c215760008030868685818110611b4d57611b4d6132ce565b9050602002810190611b5f919061353b565b604051611b6d929190613582565b600060405180830381855af49150503d8060008114611ba8576040519150601f19603f3d011682016040523d82523d6000602084013e611bad565b606091505b509150915081611bf957604481511015611bc657600080fd5b60048101905080806020019051810190611be09190613592565b60405162461bcd60e51b815260040161066f9190612c7d565b80848481518110611c0c57611c0c6132ce565b60209081029190910101525050600101611b2f565b5092915050565b6000546001600160a01b03163314611c6f5760405162461bcd60e51b815260206004820152600a6024820152694e4f545f4c455844414f60b01b604482015260640161066f565b6000805473ffffffffffffffffffffffffffffffffffffffff19166001600160a01b038316908117825560405190917f825a66cec4462a68a7a7c3488ce373198080660f3e29fa9b969527a2e83be60091a250565b6000600654600114611d055760405162461bcd60e51b815260206004820152600a6024820152695245454e5452414e435960b01b604482015260640161066f565b60026006556001600160a01b03871660009081526004602052604090205460ff16611d725760405162461bcd60e51b815260206004820152601360248201527f5245534f4c5645525f4e4f545f41435449564500000000000000000000000000604482015260640161066f565b6001600160a01b0387163314801590611d9d5750876001600160a01b0316876001600160a01b031614155b611de95760405162461bcd60e51b815260206004820152601860248201527f5245534f4c5645525f43414e4e4f545f42455f50415254590000000000000000604482015260640161066f565b6000805b8651811015611e2557868181518110611e0857611e086132ce565b602002602001015182611e1b91906132fa565b9150600101611ded565b503415611e9f57803414611e7b5760405162461bcd60e51b815260206004820152600f60248201527f57524f4e475f4d53475f56414c55450000000000000000000000000000000000604482015260640161066f565b6001600160a01b03871615611e8f57600096505b8315611e9a57600093505b611eab565b611eab87333084612b22565b600160008154809291906001019190505591506040518061018001604052806000151581526020018515158152602001600015158152602001336001600160a01b031681526020018a6001600160a01b03168152602001896001600160a01b03168152602001886001600160a01b03168152602001600063ffffffff1681526020018663ffffffff16815260200160006001600160601b03168152602001826001600160601b03168152602001878152506003600084815260200190815260200160002060008201518160000160006101000a81548160ff02191690831515021790555060208201518160000160016101000a81548160ff02191690831515021790555060408201518160000160026101000a81548160ff02191690831515021790555060608201518160000160036101000a8154816001600160a01b0302191690836001600160a01b0316021790555060808201518160010160006101000a8154816001600160a01b0302191690836001600160a01b0316021790555060a08201518160020160006101000a8154816001600160a01b0302191690836001600160a01b0316021790555060c08201518160030160006101000a8154816001600160a01b0302191690836001600160a01b0316021790555060e08201518160030160146101000a81548163ffffffff021916908363ffffffff1602179055506101008201518160030160186101000a81548163ffffffff021916908363ffffffff1602179055506101208201518160040160006101000a8154816001600160601b0302191690836001600160601b0316021790555061014082015181600401600c6101000a8154816001600160601b0302191690836001600160601b0316021790555061016082015181600501908051906020019061214b929190612bc1565b50905050876001600160a01b0316896001600160a01b0316336001600160a01b03167f16c4e9cb7d94a39f3a7405b76e4a26bc377010889b26dcfff85422d54ce25b5b6000888c878c8a8c6040516121a99796959493929190613600565b60405180910390a4506001600655979650505050505050565b600260205260009081526040902080546121db906133b2565b80601f0160208091040260200160405190810160405280929190818152602001828054612207906133b2565b80156122545780601f1061222957610100808354040283529160200191612254565b820191906000526020600020905b81548152906001019060200180831161223757829003601f168201915b505050505081565b60008381526003602052604090208054630100000090046001600160a01b0316331480612295575060018101546001600160a01b031633145b6122e15760405162461bcd60e51b815260206004820152600960248201527f4e4f545f50415254590000000000000000000000000000000000000000000000604482015260640161066f565b805462ff00001916620100001781556040517f163e50b2645bed06053460d0680d98664bd767b646d786ade17af55001da517e90612324908690869086906134fc565b60405180910390a150505050565b60006006546001146123735760405162461bcd60e51b815260206004820152600a6024820152695245454e5452414e435960b01b604482015260640161066f565b60026006556001600160a01b03871660009081526004602052604090205460ff166123e05760405162461bcd60e51b815260206004820152601360248201527f5245534f4c5645525f4e4f545f41435449564500000000000000000000000000604482015260640161066f565b6001600160a01b038716331480159061240b5750876001600160a01b0316876001600160a01b031614155b6124575760405162461bcd60e51b815260206004820152601860248201527f5245534f4c5645525f43414e4e4f545f42455f50415254590000000000000000604482015260640161066f565b6000805b865181101561249357868181518110612476576124766132ce565b60200260200101518261248991906132fa565b915060010161245b565b5034156125f8578034146124e95760405162461bcd60e51b815260206004820152600f60248201527f57524f4e475f4d53475f56414c55450000000000000000000000000000000000604482015260640161066f565b7f00000000000000000000000000000000000000000000000000000000000000006001600160a01b0316876001600160a01b031614612546577f000000000000000000000000000000000000000000000000000000000000000096505b60405162ae511b60e21b815260006004820181905230602483018190526044830152346064830181905260848301919091527f00000000000000000000000000000000000000000000000000000000000000006001600160a01b0316916302b9446c919060a401604080518083038185885af11580156125ca573d6000803e3d6000fd5b50505050506040513d601f19601f820116820180604052508101906125ef9190613651565b915061275e9050565b83156126cf5761262a87337f000000000000000000000000000000000000000000000000000000000000000084612b22565b60405162ae511b60e21b81526001600160a01b0388811660048301527f000000000000000000000000000000000000000000000000000000000000000016602482018190523060448301526064820183905260006084830152906302b9446c9060a40160408051808303816000875af11580156126ab573d6000803e3d6000fd5b505050506040513d601f19601f820116820180604052508101906125ef9190613651565b604051633c6340f360e21b81526001600160a01b038881166004830152336024830152306044830152606482018390527f0000000000000000000000000000000000000000000000000000000000000000169063f18d03cc90608401600060405180830381600087803b15801561274557600080fd5b505af1158015612759573d6000803e3d6000fd5b505050505b60016000815480929190600101919050559150604051806101800160405280600115158152602001600015158152602001600015158152602001336001600160a01b031681526020018a6001600160a01b03168152602001896001600160a01b03168152602001886001600160a01b03168152602001600063ffffffff1681526020018663ffffffff16815260200160006001600160601b03168152602001826001600160601b03168152602001878152506003600084815260200190815260200160002060008201518160000160006101000a81548160ff02191690831515021790555060208201518160000160016101000a81548160ff02191690831515021790555060408201518160000160026101000a81548160ff02191690831515021790555060608201518160000160036101000a8154816001600160a01b0302191690836001600160a01b0316021790555060808201518160010160006101000a8154816001600160a01b0302191690836001600160a01b0316021790555060a08201518160020160006101000a8154816001600160a01b0302191690836001600160a01b0316021790555060c08201518160030160006101000a8154816001600160a01b0302191690836001600160a01b0316021790555060e08201518160030160146101000a81548163ffffffff021916908363ffffffff1602179055506101008201518160030160186101000a81548163ffffffff021916908363ffffffff1602179055506101208201518160040160006101000a8154816001600160601b0302191690836001600160601b0316021790555061014082015181600401600c6101000a8154816001600160601b0302191690836001600160601b031602179055506101608201518160050190805190602001906129ff929190612bc1565b50905050876001600160a01b0316896001600160a01b0316336001600160a01b03167f16c4e9cb7d94a39f3a7405b76e4a26bc377010889b26dcfff85422d54ce25b5b600160008c878c8a8c6040516121a99796959493929190613600565b60008060008084865af1612aaa5762461bcd60e51b600052602060045260136024527f4554485f5452414e534645525f4641494c45440000000000000000000000000060445260646000fd5b5050565b60405163a9059cbb6000528260205281604052602060006044601c6000885af13d156001600051141716612b1a5762461bcd60e51b6000526020600452600f6024527f5452414e534645525f4641494c4544000000000000000000000000000000000060445260646000fd5b604052505050565b6040516323b872dd600052836020528260405281606052602060006064601c6000895af13d156001600051141716612b925762461bcd60e51b600052602060045260146024527f5452414e534645525f46524f4d5f4641494c454400000000000000000000000060445260646000fd5b600060605260405250505050565b5080546000825590600052602060002090810190612bbe9190612c0c565b50565b828054828255906000526020600020908101928215612bfc579160200282015b82811115612bfc578251825591602001919060010190612be1565b50612c08929150612c0c565b5090565b5b80821115612c085760008155600101612c0d565b60005b83811015612c3c578181015183820152602001612c24565b83811115612c4b576000848401525b50505050565b60008151808452612c69816020860160208601612c21565b601f01601f19169290920160200192915050565b602081526000612c906020830184612c51565b9392505050565b803560ff81168114612ca857600080fd5b919050565b600080600060608486031215612cc257600080fd5b612ccb84612c97565b95602085013595506040909401359392505050565b80356001600160a01b0381168114612ca857600080fd5b600060208284031215612d0957600080fd5b612c9082612ce0565b80358015158114612ca857600080fd5b60008060408385031215612d3557600080fd5b612d3e83612d12565b9150612d4c60208401612c97565b90509250929050565b600060208284031215612d6757600080fd5b5035919050565b6020808252825182820181905260009190848201906040850190845b81811015612da657835183529284019291840191600101612d8a565b50909695505050505050565b60008083601f840112612dc457600080fd5b50813567ffffffffffffffff811115612ddc57600080fd5b602083019150836020828501011115612df457600080fd5b9250929050565b600080600080600060808688031215612e1357600080fd5b853594506020860135935060408601359250606086013567ffffffffffffffff811115612e3f57600080fd5b612e4b88828901612db2565b969995985093965092949392505050565b634e487b7160e01b600052604160045260246000fd5b604051601f8201601f1916810167ffffffffffffffff81118282101715612e9b57612e9b612e5c565b604052919050565b600082601f830112612eb457600080fd5b8135602067ffffffffffffffff821115612ed057612ed0612e5c565b8160051b612edf828201612e72565b9283528481018201928281019087851115612ef957600080fd5b83870192505b84831015612f1857823582529183019190830190612eff565b979650505050505050565b600067ffffffffffffffff821115612f3d57612f3d612e5c565b50601f01601f191660200190565b600082601f830112612f5c57600080fd5b8135612f6f612f6a82612f23565b612e72565b818152846020838601011115612f8457600080fd5b816020850160208301376000918101602001919091529392505050565b6000806000806000806000806000806000806101808d8f031215612fc457600080fd5b612fcd8d612ce0565b9b50612fdb60208e01612ce0565b9a50612fe960408e01612ce0565b995067ffffffffffffffff60608e0135111561300457600080fd5b6130148e60608f01358f01612ea3565b985060808d0135975061302960a08e01612d12565b965061303760c08e01612d12565b955061304560e08e01612d12565b945067ffffffffffffffff6101008e0135111561306157600080fd5b6130728e6101008f01358f01612f4b565b93506130816101208e01612c97565b92506101408d013591506101608d013590509295989b509295989b509295989b565b6000806000604084860312156130b857600080fd5b83359250602084013567ffffffffffffffff8111156130d657600080fd5b6130e286828701612db2565b9497909650939450505050565b60008060008060008060c0878903121561310857600080fd5b61311187612ce0565b9550602087013594506040870135935061312d60608801612c97565b92506080870135915060a087013590509295509295509295565b6000806020838503121561315a57600080fd5b823567ffffffffffffffff8082111561317257600080fd5b818501915085601f83011261318657600080fd5b81358181111561319557600080fd5b8660208260051b85010111156131aa57600080fd5b60209290920196919550909350505050565b6000602080830181845280855180835260408601915060408160051b870101925083870160005b8281101561321157603f198886030184526131ff858351612c51565b945092850192908501906001016131e3565b5092979650505050505050565b600080600080600080600060e0888a03121561323957600080fd5b61324288612ce0565b965061325060208901612ce0565b955061325e60408901612ce0565b9450606088013567ffffffffffffffff8082111561327b57600080fd5b6132878b838c01612ea3565b955060808a0135945061329c60a08b01612d12565b935060c08a01359150808211156132b257600080fd5b506132bf8a828b01612f4b565b91505092959891949750929550565b634e487b7160e01b600052603260045260246000fd5b634e487b7160e01b600052601160045260246000fd5b6000821982111561330d5761330d6132e4565b500190565b600082821015613324576133246132e4565b500390565b81835281816020850137506000828201602090810191909152601f909101601f19169091010190565b858152846020820152836040820152608060608201526000612f18608083018486613329565b85815260006001600160a01b038087166020840152808616604084015280851660608401525060a06080830152612f1860a0830184612c51565b600181811c908216806133c657607f821691505b6020821081036133e657634e487b7160e01b600052602260045260246000fd5b50919050565b601f82111561343657600081815260208120601f850160051c810160208610156134135750805b601f850160051c820191505b818110156134325782815560010161341f565b5050505b505050565b67ffffffffffffffff83111561345357613453612e5c565b6134678361346183546133b2565b836133ec565b6000601f84116001811461349b57600085156134835750838201355b600019600387901b1c1916600186901b1783556134f5565b600083815260209020601f19861690835b828110156134cc57868501358255602094850194600190920191016134ac565b50868210156134e95760001960f88860031b161c19848701351681555b505060018560011b0183555b5050505050565b838152604060208201526000613516604083018486613329565b95945050505050565b60008251613531818460208701612c21565b9190910192915050565b6000808335601e1984360301811261355257600080fd5b83018035915067ffffffffffffffff82111561356d57600080fd5b602001915036819003821315612df457600080fd5b8183823760009101908152919050565b6000602082840312156135a457600080fd5b815167ffffffffffffffff8111156135bb57600080fd5b8201601f810184136135cc57600080fd5b80516135da612f6a82612f23565b8181528560208385010111156135ef57600080fd5b613516826020830160208601612c21565b871515815286151560208201526001600160a01b03861660408201528460608201528360808201528260a082015260e060c0820152600061364460e0830184612c51565b9998505050505050505050565b6000806040838503121561366457600080fd5b50508051602090910151909290915056fea26469706673582212209df96af982dfa365eba4723d5f64db958b0f5b7aeaf1c9cd6b6eb620a897d1a164736f6c634300080f0033",
    "linkReferences": {}
  }
}